:100000000C941E040C9430040C9430040C94850859
:100010000C94D41C0C9430040C9430040C943004D4
:100020000C9430040C9430040C9430040C94A226EC
:100030000C9430040C9430040C9430040C94300470
:100040000C9435260C9430040C94942A0C94F22AC7
:100050000C9430040C9430040C9430040C94300450
:100060000C9430040C9430047E31843187318A3111
:100070008F3197319F31123212321232A731AA31A9
:10008000B331BC3112321232123212321232123207
:10009000C431CE31DA31E431E731F031F931FF31B9
:1000A000C20A3E133E13CC0AD90AE60AF30A3E13EB
:1000B000F70A3E13050B3E130F0B190B440B3E13AF
:1000C0003E133E13230B2E0B390B0A121B123A124E
:1000D0001B123E12511244124A1267126D127C1208
:1000E0008F12A812B212BD12C712492B4C2B512BE2
:1000F000542B572B5A2B5D2B602B632B662B692BB4
:10010000752B752B752B752B752B752B752B752BEF
:100110006F2B6C2B722B084AD73B3BCE016E84BCF5
:10012000BFFDC12F3D6C74319ABD56833DDA3D0051
:10013000C77F11BED9E4BB4C3E916BAAAABE00009A
:1001400000803F05A84CCDB2D44EB93836A9020C78
:1001500050B9918688083CA6AAAA2ABE0000008051
:100160003F000D0A4772626C20302E396A205B27EF
:10017000242720666F722068656C705D0D0A000D83
:100180000A003D00244E005D0D0A005B302E396AE6
:100190002E32303136303732363A005D0D0A005B90
:1001A000544C4F3A005D0D0A002C005B4739323A3F
:1001B000005D0D0A002C003A003330003238005B3D
:1001C00047005D0D0A002053002046002054002007
:1001D0004D3800204D3900204D3500204D34002091
:1001E0004D3300204D3200204D3100204D30002095
:1001F0004739340020473933002047393100204740
:10020000393000204732300020473231002047315A
:100210003900204731380020473137002047004758
:1002200033382E004738300047330047320047311B
:10023000004730005B00242420287669657720473A
:1002400072626C2073657474696E6773290D0A2479
:1002500023202876696577202320706172616D659F
:1002600074657273290D0A24472028766965772002
:10027000706172736572207374617465290D0A244C
:1002800049202876696577206275696C6420696EFB
:10029000666F290D0A244E202876696577207374CD
:1002A000617274757020626C6F636B73290D0A2420
:1002B000783D76616C75652028736176652047729C
:1002C000626C2073657474696E67290D0A244E7818
:1002D0003D6C696E65202873617665207374617268
:1002E00074757020626C6F636B290D0A244320289B
:1002F000636865636B2067636F6465206D6F646519
:10030000290D0A245820286B696C6C20616C61727D
:100310006D206C6F636B290D0A2448202872756E5E
:1003200020686F6D696E67206379636C65290D0ABB
:100330007E20286379636C65207374617274290D63
:100340000A2120286665656420686F6C64290D0A9F
:100350003F202863757272656E74207374617475C2
:1003600073290D0A6374726C2D7820287265736589
:1003700074204772626C290D0A006F6B0D0A005DD4
:100380000D0A00526573746F72696E67206465664A
:1003900061756C74730050676D20456E640043682E
:1003A00065636B20446F6F720044697361626C65B2
:1003B0006400456E61626C65640043617574696FC9
:1003C0006E3A20556E6C6F636B6564002724482776
:1003D0007C2724582720746F20756E6C6F636B0028
:1003E000526573657420746F20636F6E74696E75E7
:1003F00065005B000D0A00486F6D696E67206661DD
:10040000696C0050726F6265206661696C004162C0
:100410006F727420647572696E67206379636C65AE
:1004200000536F6674206C696D6974004861726472
:10043000206C696D697400414C41524D3A20003E78
:100440000D0A002C4C696D3A002C52583A002C428F
:1004500075663A002C002C57506F733A002C002C14
:100460004D506F733A003C446F6F72003C436865B7
:10047000636B003C416C61726D003C486F6D6500C0
:100480003C486F6C64003C52756E003C49646C657E
:1004900000290D0A00206D61782074726176656C08
:1004A0002C206D6D0020616363656C2C206D6D2FB9
:1004B0007365635E3200206D617820726174652C13
:1004C000206D6D2F6D696E002C20737465702F6D1B
:1004D0006D007A00790078002028003D002400207B
:1004E00028686F6D696E672070756C6C2D6F66661D
:1004F0002C206D6D290D0A002028686F6D696E67CC
:10050000206465626F756E63652C206D7365632969
:100510000D0A2432373D002028686F6D696E672010
:100520007365656B2C206D6D2F6D696E290D0A2426
:1005300032363D002028686F6D696E6720666565FC
:10054000642C206D6D2F6D696E290D0A2432353DA6
:1005500000290D0A2432343D002028686F6D696E31
:10056000672064697220696E76657274206D6173AC
:100570006B3A002028686F6D696E67206379636C41
:10058000652C20626F6F6C290D0A2432333D0020E8
:100590002868617264206C696D6974732C20626FC5
:1005A0006F6C290D0A2432323D002028736F667467
:1005B000206C696D6974732C20626F6F6C290D0A51
:1005C0002432313D0020287265706F727420696E8C
:1005D000636865732C20626F6F6C290D0A243230BA
:1005E0003D00202861726320746F6C6572616E63D8
:1005F000652C206D6D290D0A2431333D0020286AB9
:10060000756E6374696F6E20646576696174696F75
:100610006E2C206D6D290D0A2431323D00290D0A02
:100620002431313D00202873746174757320726524
:10063000706F7274206D61736B3A00202870726F56
:1006400062652070696E20696E766572742C206216
:100650006F6F6C290D0A2431303D0020286C696DC4
:1006600069742070696E7320696E766572742C20CF
:10067000626F6F6C290D0A24363D00202873746563
:100680007020656E61626C6520696E766572742C8F
:1006900020626F6F6C290D0A24353D00290D0A2454
:1006A000343D00202864697220706F727420696E76
:1006B00076657274206D61736B3A00290D0A2433DC
:1006C0003D0020287374657020706F727420696E0D
:1006D00076657274206D61736B3A002028737465BF
:1006E000702069646C652064656C61792C206D7381
:1006F0006563290D0A24323D00202873746570203B
:1007000070756C73652C2075736563290D0A24312F
:100710003D0024303D005D0D0A003A002C005B5086
:1007200052423A000D0A00496E76616C6964206796
:10073000636F64652049443A00556E646566696E6E
:1007400065642066656564207261746500556E732A
:100750007570706F7274656420636F6D6D616E6427
:10076000004D6F64616C2067726F75702076696FE1
:100770006C6174696F6E004C696E65206F7665728E
:10078000666C6F7700486F6D696E67206E6F7420BE
:10079000656E61626C656400416C61726D206C6FA6
:1007A000636B004E6F742069646C65004545505260
:1007B0004F4D2072656164206661696C2E2055730F
:1007C000696E672064656661756C74730056616C50
:1007D0007565203C20332075736563005365747420
:1007E000696E672064697361626C65640056616C50
:1007F0007565203C203000496E76616C6964207319
:10080000746174656D656E7400426164206E756D0F
:1008100062657220666F726D617400457870656301
:1008200074656420636F6D6D616E64206C657474B3
:100830006572006572726F723A20000011241FBE4B
:10084000CFEFD8E0DEBFCDBF26E0A0E0B1E001C031
:100850001D92AE3CB207E1F70E94232D0C94B33AEF
:100860000C940000EBE6F0E08081897E8083E8E66E
:10087000F0E080818E7F8083089584B1897E84B981
:1008800085B1866185B98091650683FF0BC0809133
:100890006B00866180936B0080916800816080931B
:1008A000680008950C943204F999FECF92BD81BD81
:1008B00081E08FBB80B508952F923F924F925F9257
:1008C0006F927F928F929F92AF92BF92CF92DF9260
:1008D000EF92FF920F931F93CF93DF93C091830406
:1008E000C11101C0C2E1C150D0919F01CD1709F4DF
:1008F0001BC1EC2EF12C29E2C29F8001112400566D
:100900001E4FF801A588B688C788D08C61A172A156
:1009100083A194A19B01AC010E940536F80125A199
:1009200036A147A150A50E945C394B018C019B0167
:10093000AC01B501C6010E94FA3687FD02C0540120
:10094000680189E28E9DF0018F9DF00D1124E05623
:10095000FE4FC501D601818B928BA38BB48BC11145
:1009600001C0C2E1C150CD1761F029E22E9DC00146
:100970002F9D900D11249C0120563E4F7901D9E204
:1009800033C080918204D8135EC00E940D1D5BC0ED
:10099000AC2EB12CDA9DC001DB9D900D1124FC0121
:1009A000E056FE4F6F01C11101C0C2E1C1508091FC
:1009B0008204C81302C00E940D1DDA9D8001DB9DD8
:1009C000100D112400561E4FF80185889688A788BF
:1009D000B08CA501940161897289838994890E94F0
:1009E000FA36811106C0760180919F01C813D0CFDD
:1009F0002AC0F80161A172A183A194A19B01AC015D
:100A00000E940536F80125A136A147A150A50E94F4
:100A10005C39F70121893289438954890E9405365E
:100A20002B013C01A50194010E94FA36F80187FFD1
:100A300005C0418A528A638A748AD5CF818A928A94
:100A4000A38AB48AD0CFD0919F01F9E2DF9F8001C1
:100A5000112400561E4FC1E0CD0FC23109F4C0E091
:100A60002090830489E2382EC21509F45BC0CC2E95
:100A7000D12C3C9CC0013D9C900D11249C01205622
:100A80003E4F7901F8014188528863887488F901E2
:100A900081889288A388B488A5019401C301B2011A
:100AA0000E94FA3687FF24C0F80161A172A183A1D8
:100AB00094A19B01AC010E940536F80125A136A145
:100AC00047A150A50E945C399B01AC01C301B20152
:100AD0000E9405362B013C01A50194010E94FA36C3
:100AE00087FF06C0F701418A528A638A748ADC2F25
:100AF0003C9CF0013D9CF00D1124E056FE4F2589F1
:100B000036894789508D61897289838994890E94C9
:100B1000FA36811101C0DC2FCF5FC23109F4C0E089
:100B20008701A2CFD0939F01DF91CF911F910F91A9
:100B3000FF90EF90DF90CF90BF90AF909F908F90FD
:100B40007F906F905F904F903F902F900895009707
:100B500041F0EFE9FFE03197F1F700C000000197A5
:100B6000F6CF089593B196718091650686FD02C017
:100B700086E19827992349F091FB882780F992FD17
:100B80008260907119F08460089580E008958F92DA
:100B90009F92AF92BF92CF92DF92EF92FF920F930C
:100BA0001F93CF934B017A016C01C40ED51E8C01AB
:100BB000C0E05B01A81AB90AC501800F911F0C158E
:100BC0001D0599F00E945404C11108C02C2FCC0FB0
:100BD000330B232F221F2227221F01C021E0C22F07
:100BE000C80FF80181938F01E7CFC4018E0D9F1DBF
:100BF0000E94540421E030E0C81711F020E030E0FA
:100C0000C901CF911F910F91FF90EF90DF90CF908E
:100C1000BF90AF909F908F900895F894F999FECF70
:100C200092BD81BD81E08FBB80B58627482F082EFD
:100C3000000C550B262F30E024233523232B39F0CD
:100C40006F3F19F060BD84E006C084E104C08823D2
:100C500021F060BD84E28FBBF99A789408958F9259
:100C60009F92AF92BF92CF92DF92EF92FF920F933B
:100C70001F93CF937C014A016B01C40ED51E8B01DB
:100C8000C0E05C01A61AB70AC8018A0D9B1D0C15AD
:100C90001D0599F0C11108C02C2FCC0F330B232F49
:100CA000221F2227221F01C021E0F80161918F013C
:100CB000C22FC60F0E940D06E7CF6C2FC701880D0B
:100CC000991DCF911F910F91FF90EF90DF90CF90E2
:100CD000BF90AF909F908F900C940D06439808950D
:100CE0008091260684FD26C09FB7F8948091260641
:100CF0008061809326069FBF0E94F8280E946E069E
:100D00008091B106982F9C7021F49091B206913099
:100D100089F49FB7843029F4F8948091AF068062FB
:100D200004C0F8948091AF0688608093AF069FBF9F
:100D30000C944B2608952F923F924F925F926F92A0
:100D40007F928F929F92AF92BF92CF92DF92EF925B
:100D5000FF920F931F93CF93DF93CDB7DEB76B97BF
:100D60000FB6F894DEBF0FBECDBF9091B0069111C3
:100D7000B3C1782E9CE4A92E96E0B92E9E01235F84
:100D80003F4F490100E010E0C12CD12C7601482FE3
:100D900050E05B8B4A8B902F0115110521F001303B
:100DA00021F080E103C084E001C088E0D4018D938C
:100DB0004D01EA89FB8902C0F595E7959A95E2F71E
:100DC000E0FF17C020E030E040EC5FEBD5016D9113
:100DD0007D918D919C910E945C391B012C019B019E
:100DE000AC01C701B6010E941C39181614F061014C
:100DF00072010F5F1F4FB4E0AB0EB11C0330110541
:100E000051F680906B0690906C06A0906D06B090A5
:100E10006E0604E011E06624639464EB76E0CE0194
:100E200001960E948C1C80916606E82FF0E0FD8BF5
:100E3000EC8BFE01319620EB36E0398B288B3B8F13
:100E40002A8F20E030E060E090E01601270157FA99
:100E5000509457F850944A895B89022E02C05595E8
:100E600047950A94E2F740FF2AC06F5FAA8DBB8DB9
:100E700014961D921D921D921C9217974C895D89A4
:100E8000022E02C0559547950A94E2F740FF03C031
:100E9000112319F007C0112329F0C082D182E28208
:100EA000F38204C020823182428253824DE050E0BE
:100EB0004C0F5D1F420F531FDA018C91982B2F5F4F
:100EC0003F4F34964A8D5B8D4C5F5F4F5B8F4A8FEF
:100ED0002330310509F0BFCFF92E70E080E090E0BB
:100EE0000E94AC370E94FB399B01AC01C501B401E3
:100EF0000E945C39AB01BC01F092CD064E8B5F8B3A
:100F0000688F798F0E940D1920E04E895F89688D66
:100F1000798DCE0101960E9430190E942F1D0E94EA
:100F2000D8281123E9F00E94B205FE013D9620E089
:100F300030E090E06191462F4F2159F0AC01022E34
:100F400002C0559547950A94E2F740FF02C06095AC
:100F5000F6222F5F3F4F2330310561F7F092CD0627
:100F60000E942F1D809126068473C1F08091260671
:100F7000807329F00E9470060E949516ADC0111171
:100F8000A6C00E94B2058721A9F79FB7F894809167
:100F900026068B7F809326069FBF04C08F2D8C7101
:100FA00009F0BFCF0E9476260E947B1C80916F06BD
:100FB000909170060E94A7051625C9F020E030E048
:100FC00040EA50E460917106709172068091730658
:100FD000909174060E945C396B017C0180906706D9
:100FE00090906806A0906906B0906A0610C0C09004
:100FF0007106D0907206E0907306F09074068090AF
:101000006B0690906C06A0906D06B0906E06015035
:1010100009F003CFC0906606D12C809071069090A5
:101020007206A0907306B09074062401350177FA19
:10103000709477F8709488E2E82E86E0F82E00E04D
:1010400010E08A899B89002E02C0959587950A94A5
:10105000E2F780FF2AC0C601002E02C09595879551
:101060000A94E2F7D70180FF10C094962D913D912C
:101070004D915C919797C501B4010E940536F70127
:10108000208131814281538106C02D913D914D9146
:101090005C91C301B2010E945C390E942939E88940
:1010A000F98964837583868397830F5F1F4F28892F
:1010B00039892C5F3F4F398B288B34E0E30EF11CCC
:1010C0000330110509F0BDCF0E940D1905C08091B4
:1010D000260682FF5ACF4ECF6B960FB6F894DEBF2E
:1010E0000FBECDBFDF91CF911F910F91FF90EF9079
:1010F000DF90CF90BF90AF909F908F907F906F9038
:101100005F904F903F902F9008951F920F920FB6CF
:101110000F9211242F933F934F935F936F937F937D
:101120008F939F93AF93BF93EF93FF938091B106FB
:10113000813071F08091AF0681110AC00E94700663
:101140009FB7F8948091AF0683608093AF069FBFEE
:10115000FF91EF91BF91AF919F918F917F916F918F
:101160005F914F913F912F910F900FBE0F901F9065
:1011700018952F923F924F925F926F927F928F922B
:101180009F92AF92BF92CF92DF92EF92FF920F9316
:101190001F93CF93DF93CDB7DEB7E7970FB6F894E1
:1011A000DEBF0FBECDBF89E3E6E7F6E0DF011D92AB
:1011B0008A95E9F78AE0E7EEF5E0A7E7B6E0019067
:1011C0000D928A95E1F71D8E212C312CE12CF12C0A
:1011D0001F8E10E01E8E66246394712C5524539448
:1011E000B6E04B2E8D8DE82FF0E0E956FA4FC08027
:1011F000CC2009F46CC29FEB9C0D9A3110F00C943A
:1012000030138F5F8D8FBE01675E7F4FCE014D968D
:101210000E94D12B882311F40C943213898C9A8C60
:10122000AB8CBC8CC501B4010E943F3A0E947D3753
:10123000062F70E080E090E00E94AE379B01AC0189
:10124000C501B4010E94043620E030E048EC52E4CD
:101250000E945C390E94C9390E947D37B7E4CB16E1
:1012600029F0EDE4CE1609F437C17BC1083209F448
:1012700008C1E8F4043160F4013108F0ADC0043075
:1012800009F44CC008F463C00A30E1F10C943E1339
:101290000C31C1F128F4063108F4CDC00C943E1392
:1012A0000E3181F1063209F452C00C943E130D3315
:1012B00009F4E1C0B0F4053309F445C040F40B3241
:1012C00009F4C2C0013309F4BFC00C943E130C33BF
:1012D00010F00C943E138AEC800F80937D0689E019
:1012E000D3C00C3540F40A3508F085C0003509F448
:1012F0006FC00C943E130C3529F00F3508F492C0E2
:101300000C943E136115710511F00C944E13FE8D73
:10131000FF2311F40C945D130C9434135092760651
:101320000AC00F3150F40A3009F0B2C021E02E8F0C
:1013300082E08093760680E0A7C0053311F00C941C
:101340007413E1E0EE8FF7E0F0937606F4CF9E8D14
:1013500091110C943413A2E0AE8F023089F028F47E
:10136000002359F0013081F08EC0063281F0003543
:1013700079F1033009F087C007C01092770683C067
:10138000BE8DB09377067FC0009377067CC06E3128
:101390007105B1F048F46431710511F00C943E13FD
:1013A000E4E0E093770612C06832710569F06233B9
:1013B000710511F00C943E1327E02093770606C0C8
:1013C000F5E0F093770602C04092770681E074C0A2
:1013D00038E03093770657C0023129F0033139F0F5
:1013E00010927B0602C050927B0682E04DC082E0E4
:1013F00080937B0649C06115710549F40A3519F4DB
:1014000010927A0602C050927A0683E055C06A3084
:10141000710511F00C943E130A3511F40C943E132F
:1014200084E04AC00D3519F45092780602C010923B
:10143000780685E029C0043119F45092790602C07B
:101440001092790686E020C08E8D81110C943413A1
:10145000013331F410927C0688E093E09E8F2CC01B
:101460006A30710511F00C943E1350927C0688E0AE
:10147000A3E0AE8F21C0672B11F00C943E138AE0DD
:101480001BC087E001C081E0672BB1F00C945913B9
:101490000C3111F00C94841331E03E8F611571050D
:1014A00011F40C9472136A30710511F00C943E1310
:1014B00094E09093760680E0F30102C0EE0FFF1FE8
:1014C0008A95E2F7CF019F012E213F21232B09F4BA
:1014D00045C085E10C949813672B11F00C945913B7
:1014E000063018F4033058F017C0083010F40C948C
:1014F0003E130A3000F10E3159F00C943E130230C5
:1015000039F00E3129F0011120C050927E061DC025
:1015100082E080937E0619C0043029F0053039F04E
:101520005092800606C082E08093800602C010922E
:1015300080068CE00BC0093021F082E080937F06AA
:1015400002C010927F068DE001C08BE0930102C0C3
:10155000220F331F8A95E2F7C901B6CFE82AF92A8C
:1015600041CE8C2DCC0C990BAA0BBB0BFC01E65485
:10157000F109E531F10510F00C943E13E05BFF4FEB
:101580000C94933A8092810690928206A0928306F0
:10159000B092840680E079C080928506909286069B
:1015A000A0928706B09288063F8D31603F8F81E020
:1015B0006CC08092890690928A06A0928B06B092A7
:1015C0008C068F8D82608F8F82E05FC080928D0647
:1015D00090928E06A0928F06B09290069F8D946096
:1015E0009F8F83E052C00093910684E04EC0C501F6
:1015F000B4010E94763760939206709393068093AD
:1016000094069093950685E040C08092960690924D
:101610009706A0929806B092990686E036C080920E
:101620009A0690929B06A0929C06B0929D0687E037
:101630002CC080929E0690929F06A092A006B09227
:10164000A10688E022C08092A3069092A406A092F0
:10165000A506B092A60611608AE017C08092A70680
:101660009092A806A092A906B092AA0612608BE0FA
:101670000CC08092AB069092AC06A092AD06B092E0
:10168000AE0614608CE001C089E06301082E02C040
:10169000CC0CDD1C0A94E2F7960122213321232B86
:1016A00009F0E4C7A1E6B3E002C0B595A7958A9515
:1016B000E2F7A0FF09C020E030E0A901C501B401B4
:1016C0000E94FA3687FDD4C72C283D288BCD1123E4
:1016D00029F0BE8DB11102C0E2E0EE8F25FE0EC0F2
:1016E0008091920690919306A0919406B0919506F0
:1016F00080389649A849B1050CF0BCC7809178069E
:10170000813031F42E8D2230A1F520FEBDC731C0CD
:101710008091E80581112DC020FE1BC080917906C3
:10172000813039F523E333E34BEC51E460918106DA
:101730007091820680918306909184060E945C39A4
:10174000609381067093820680938306909384064B
:1017500010C08091F5059091F605A091F705B09124
:10176000F8058093810690938206A0938306B09338
:10177000840630FC10C08091F1059091F205A09193
:10178000F305B091F40580939E0690939F06A09375
:10179000A006B093A10680917606813031F426FC34
:1017A00002C08CE1C5C7E89426F880917B068823A7
:1017B00071F0813031F431E038A71FA282E08EA3AE
:1017C0000BC018A692E09FA3A1E0AEA305C0B2E0B3
:1017D000B8A7E1E0EFA31EA280917906813021F045
:1017E000FE8DF330A1F52CC0F3EAAF2EF6E0BF2E4C
:1017F000C12CD12C812E912CC4010C2C02C09595AA
:1018000087950A94E2F780FF10C023E333E34BECA3
:1018100051E4D5016D917D918D919C910E945C392F
:10182000F5016083718382839383FFEFCF1ADF0A10
:1018300024E0A20EB11C33E0C316D104E9F6D0CFE8
:1018400080917C06813019F4143009F015C78CE0C2
:10185000EAE0F6E0DE011D9601900D928A95E1F72F
:10186000F1FC08C0009176060230B9F0083009F4A6
:10187000B0C013C180917D06873010F08DE158C74C
:101880009091ED05981771F3BE01635F7F4F0E9441
:101890006F29882309F400C7E5CF111102C08AE13E
:1018A00047C7C10180759927892B09F47ACF6091C8
:1018B00096067091970680919806909199060E94DD
:1018C0003F3A0E947D376730C8F680919106843197
:1018D00029F0823009F0D2C627FCD0C68FEA282230
:1018E000662319F061506BA303C090917D069BA302
:1018F000BE016F5F7F4F8BA10E946F29882309F47F
:10190000CBC600919106409022065090230660902D
:10191000240670902506DE0111967D01A12CB12CC4
:10192000C12CD12C812E912CC4010C2C02C0959578
:1019300087950A94E2F780FF3DC0F501EA58F94F18
:10194000FDA3ECA3043159F5F501E951FA4F27A5A0
:1019500030A941A952A96789708D818D928D0E940D
:101960000436ACA1BDA19D962D913D914D915C9108
:10197000D0970E940436F70160837183828393833A
:10198000F2E0CF16D104B1F4A30192010E94043613
:10199000D7016D937D938D939C9313970BC0ECA10E
:1019A000FDA185A596A5A7A5B0A9F7018083918380
:1019B000A283B383FFEFCF1ADF0A24E0A20EB11C8B
:1019C00034E0E30EF11C83E0C816D10409F0ACCF7B
:1019D00017C1112309F463CF4090220650902306CB
:1019E0006090240670902506E3EAEE2EE6E0FE2ED7
:1019F000A12CB12CC12CD12C812E912CF501E951B7
:101A0000FA4FC4010C2C02C0959587950A94E2F711
:101A100080FF2BC0ADE0B0E0AC0FBD1FAA0DBB1D19
:101A20002D913D914D915C916789708D818D928D45
:101A30000E940436D7012D913D914D915C910E94F9
:101A40000436F7016083718382839383F2E0CF16BB
:101A5000D104A1F4A30192010E940436D7016D9331
:101A60007D938D939C93139709C087A590A9A1A9F5
:101A7000B2A9F70180839183A283B383FFEFCF1ACA
:101A8000DF0A24E0A20EB11C34E0E30EF11C83E077
:101A9000C816D10409F0B2CFB2C09E8D933051F474
:101AA000053009F495C0073009F4A4C0033009F0EB
:101AB000A6C086C0112309F498C0A0917A06ABA3F2
:101AC00040902206509023066090240670902506D0
:101AD0006EEFA62E65E0B62E73EAE72E76E0F72EBF
:101AE0004E01BDE08B0E911CC12CD12CE12FF0E0FA
:101AF000FDA3ECA38CA19DA10C2C02C0959587950C
:101B00000A94E2F780FD0BC0F50180819181A281EA
:101B1000B381F70180839183A283B3833FC00730F1
:101B2000E9F1FBA1F11129C0D50158962D913D9104
:101B30004D915C915B97F401608171818281938109
:101B40000E940536D7012D913D914D915C910E94E7
:101B50000536F7016083718382839383F2E0CF16A9
:101B6000D104E1F4A30192010E940536D7016D93DF
:101B70007D938D939C93139711C0F5012081318142
:101B800042815381D7016D917D918D919C910E94ED
:101B90000536F7016083718382839383FFEFCF1A49
:101BA000DF0A24E0A20EB11C34E0E30EF11C84E055
:101BB000880E911C93E0C916D10409F09BCF70CF19
:101BC000111101C01E8EBE016F5F7F4F86E007C0FE
:101BD000111101C01E8EBE016F5F7F4F87E00E9412
:101BE0006F29882309F458C50AC0053099F30730D6
:101BF00009F09AC580917706823008F041C51BA292
:101C000000917706083041F4112309F4DAC1AE8D52
:101C1000A13009F037C5B9C2BE8DB23009F0D1C1CB
:101C20000023D9F020E030E0A90160918106709195
:101C3000820680918306909184060E94FA3688235A
:101C400009F422C5043028F4023058F4013029F098
:101C50009CC2083008F474C198C2112309F4B4C1BD
:101C600094C2112309F41BCEFEA1EF2FF0E0FDA3D7
:101C7000ECA33FA1232F30E03AA729A781E090E011
:101C80007C010FA002C0EE0CFF1C0A94E2F70EA02C
:101C900002C0880F991F0A94E2F7E82AF92A812FD7
:101CA00090E08E219F21892B09F4F0C4CF01880F89
:101CB000991F880F991FFC01EA58F94FDC01A951BF
:101CC000BA4F57962D913D914D915C915A9765A5CC
:101CD00076A587A590A90E9404362B013C0189A511
:101CE0009AA5880F991F880F991FFC01EA58F94F90
:101CF000DC01A951BA4F57962D913D914D915C91C0
:101D00005A9765A576A587A590A90E9404364B0130
:101D10005C01610180E8C822DD2427FE40C0E89410
:101D200027F82091A3063091A4064091A506509172
:101D3000A6066091FE057091FF05809100069091C6
:101D400001060E94FA36811144C12091A706309104
:101D5000A8064091A9065091AA06609102067091CA
:101D6000030680910406909105060E94FA368111BF
:101D700030C12091AB063091AC064091AD06509138
:101D8000AE06609106067091070680910806909154
:101D900009060E94FA3681111CC181E2C9C43F8D37
:101DA000232F30E038A32F8FE222F322EF2809F40B
:101DB0006FC481EF282280917906813009F47BC0BD
:101DC000ECA1FDA1EE0FFF1FEE0FFF1FE658F94F2C
:101DD000C384D484E584F684A7019601C301B201CB
:101DE0000E9404362B013C01E9A5FAA5EE0FFF1F66
:101DF000EE0FFF1FE658F94F83859485A585B685BC
:101E00008F8F98A3A9A3BAA39C01AD01C501B4010A
:101E10000E9404364B015C01A3019201C301B2018F
:101E20000E945C392B013C01A5019401C501B4015C
:101E30000E945C399B01AC01C301B2010E940536CE
:101E40000E94FB394B015C01A7019601C701B60155
:101E50000E945C396B017C012F8D38A149A15AA1E8
:101E6000CA01B9010E945C399B01AC01C701B601EE
:101E70000E9405360E94FB396B017C0160939A0633
:101E800070939B0680939C0690939D069B01AC01EA
:101E9000C501B4010E9404364B015C01E894B7F817
:101EA0002AE037ED43EA5BE3C501B4010E941C3927
:101EB00018164CF16AC106E716E08F8D98A10C2C1C
:101EC00002C0959587950A94E2F780FF12C023E33C
:101ED00033E34BEC51E4D8011F966D917D918D91C8
:101EE0009C9152970E945C39F8016787708B818BB7
:101EF000928BFFEFCF1ADF0A0C5F1F4F23E0C21651
:101F0000D104D9F65DCF20E030E040E05FE3C501C9
:101F1000B4010E941C3918160CF43FCF2FE632E1B1
:101F200043E85AE3C701B6010E945C399B01AC014A
:101F3000C501B4010E941C3918160CF42ECF25C11E
:101F4000112309F4ACCC2091A3063091A406409152
:101F5000A5065091A6066091FE057091FF0580913F
:101F60000006909101060E94FA3681110EC120915F
:101F7000A7063091A8064091A9065091AA06609143
:101F800002067091030680910406909105060E9456
:101F9000FA368111FAC02091AB063091AC0640911F
:101FA000AD065091AE0660910606709107068091CD
:101FB0000806909109060E94FA36882309F4EDCEAE
:101FC000E4C03E8D3111E1C0C1018E7D9C7F1E8E2B
:101FD000DFC0809179068130B1F423E333E34BEC29
:101FE00051E460919A0670919B0680919C069091B5
:101FF0009D060E945C3960939A0670939B068093BD
:102000009C0690939D0680919A0690919B06A091C4
:102010009C06B0919D068F8F98A3A9A3BAA3A30194
:102020009201C301B2010E945C396BA77CA78DA706
:102030009EA7A5019401C501B4010E945C396FA758
:1020400078AB89AB9AAB20E030E040E850E46F8D8C
:1020500078A189A19AA10E945C392F8D38A149A14C
:102060005AA10E945C392BA53CA54DA55EA50E94F6
:1020700004362FA538A949A95AA90E9404366B0134
:102080007C0120E030E0A9010E94FA3687FD13C3ED
:10209000C701B6010E94FB396B017C012FA538A94D
:1020A00049A95AA96BA57CA58DA59EA50E940536B8
:1020B0000E94FB399B01AC01C701B60190580E94F8
:1020C00004376B017C01033021F4F7FAF094F7F840
:1020D000F09420E030E0A9016F8D78A189A19AA148
:1020E0000E94FA3687FF11C0F7FAF094F7F8F094DF
:1020F0008F8D98A1A9A1BAA1B05880939A06909308
:102100009B06A0939C06B0939D060CA11DA1000FF9
:10211000111F000F111F0658194FA7019601C50185
:10212000B4010E945C399B01AC01C301B2010E9461
:10213000043620E030E040E05FE30E945C39D801E3
:102140001B966D937D938D939C931E9709A51AA55D
:10215000000F111F000F111F0658194FA7019601FC
:10216000C301B2010E945C399B01AC01C501B401FD
:102170000E94053620E030E040E05FE30E945C39D9
:10218000F8016387748785879687C1018E7D907E6D
:10219000892B09F07FC28091920690919306A091BD
:1021A0009406B09195068093FA059093FB05A09351
:1021B000FC05B093FD05809178068093E805809139
:1021C000810690918206A0918306B0918406809347
:1021D000F5059093F605A093F705B093F805C09028
:1021E0009E06D0909F06E090A006F090A106A70161
:1021F00096016091F1057091F2058091F30590913F
:10220000F4050E94FA36882301F18091F0058823B5
:1022100061F09091B106923041F08FAB0E945E3236
:10222000B701A6018FA90E94FE2880919E06909179
:102230009F06A091A006B091A1068093F10590930E
:10224000F205A093F305B093F4058091A206809364
:10225000F905809180069091F0059817F1F0409172
:10226000F1055091F2056091F3057091F40590919C
:10227000B106923071F04BAB5CAB6DAB7EAB8FAB0C
:102280000E945E324BA95CA96DA97EA98FA90E940C
:10229000FE28809180068093F00510917F06809142
:1022A000EF05811781F08091B106823041F00E94E4
:1022B0005E32123011F4439A02C00E946E06809181
:1022C0007F068093EF0580917606813069F08091DA
:1022D0007B068093EB05809179068093E9058E8DCE
:1022E000833009F074C054C0809096069090970691
:1022F000A0909806B09099068091B106823039F38B
:1023000020E030E040EA51E4C501B4010E945C39AC
:102310000E94E9370E947D376B017C010E945E328A
:1023200020E030E04AE754E4C501B4010E945C3982
:102330004B015C0182E38C9DB0018D9D700D1124D9
:1023400080E090E00E94AC379B01AC01C501B40174
:102350000E9404360E94E9370E947D37CB010E941B
:10236000A705C114D10409F4B2CF0E94951691E0DB
:10237000C91AD1088091B0068111A9CFAFEFB0E79B
:10238000E2E0A150B040E040E1F700C00000E9CF3A
:1023900080917C068093EC05813089F48091AB06B6
:1023A0009091AC06A091AD06B091AE068093220646
:1023B00090932306A0932406B093250608C010929C
:1023C0002206109223061092240610922506809170
:1023D0007D069091ED05981759F08093ED058CE0FE
:1023E000FE013D96AAE0B6E001900D928A95E1F7D4
:1023F00080917A068093EA05E09176068E2F90E030
:10240000FC013297E830F10508F04BC0EB59FF4F63
:102410000C94933ABE016F5F7F4F8BA10E94662997
:102420008091ED05FBA18F133CC08CE0FE0131963D
:10243000AAE0B6E01AC02E8D222349F020E040E049
:1024400050E060E87FEB83EA96E00E94822C20E077
:1024500040E050E060E87FEBCE0101960E94822CC4
:102460008CE0FE013196AEEFB5E001900D928A95B9
:10247000E1F717C06EEF75E086E003C06EEF75E020
:1024800087E00E9466290DC08CE0E3EAF6E0A6E151
:10249000B6E0EBCF8CE0E6E1F6E0DF011D928A9535
:1024A000E9F7E0917706E093E705E83009F486C0A4
:1024B000BE8DB23009F082C08E2F90E08830910539
:1024C00008F073C0FC01E359FF4F0C94933A20E0ED
:1024D00040E050E060E87FEB0AC04091F505509184
:1024E000F6056091F7057091F8052091E80583EAFB
:1024F00096E00E94822C59C02091F5053091F60596
:102500004091F7055091F80560919A0670919B06ED
:1025100080919C0690919D068824839411C02091FF
:10252000F5053091F6054091F7055091F805609159
:102530009A0670919B0680919C0690919D06812C35
:10254000A8A4CFA0EEA00091E8050E9425332DC0DD
:102550006091F5057091F6058091F7059091F80569
:1025600000E009C06091F5057091F6058091F705CE
:102570009091F80501E020E014C06091F50570919C
:10258000F6058091F7059091F80500E009C060918B
:10259000F5057091F6058091F7059091F80501E039
:1025A00021E04091E8050E947B328CE0E3EAF6E00E
:1025B000AEEFB5E001900D928A95E1F780917E062D
:1025C0008093EE05882309F4B3C00E945E32909197
:1025D000EE058091B106913069F48230E9F19FB740
:1025E000F894809126068860809326069FBF0E94FB
:1025F000951632C091E09093E7051092EB0510928A
:10260000EA051092E8051092ED051092F00510927F
:10261000EF058230A9F0BE01635F7F4F80E00E942A
:102620006F298823C9F18CE0FE013D96AAE0B6E04F
:1026300001900D928A95E1F70E94F8280E946E069B
:1026400082EF93E00E941A1586E993E00E941A1522
:102650008FE793E00E941A151092EE0580E068C0A3
:1026600081E066C082E064C088E162C089E160C048
:1026700084E05EC08BE15CC085E25AC084E158C052
:102680008EE156C08FE154C086E152C080E250C056
:1026900083E24EC084E24CC087E04AC00E3199F01C
:1026A000E0F50A3011F40C9498090C3111F40C94F3
:1026B0004E0A87E13DC082E23BC00E3111F00C941E
:1026C0009109A1E0AE8F6115710539F06A3071058D
:1026D000A9F6409276060C945B0AB5E0B0937606B4
:1026E0000C945B0A83E00CC00C3571F421E02E8F52
:1026F0006115710569F06A30710509F0BFCF89E095
:10270000809376060C945B0AB1E0BE8F0C945B0A52
:1027100038E0309376060C945B0A053311F40C9480
:10272000A3090C3529F3C5CF033009F068CA4ACA9A
:10273000E7960FB6F894DEBF0FBECDBFDF91CF9105
:102740001F910F91FF90EF90DF90CF90BF90AF90CF
:102750009F908F907F906F905F904F903F902F90C1
:102760000895CF93DF93C7E9D5E08991882319F0C5
:102770000E941C2BFACFDF91CF910895CF93DF9366
:1027800021E5829FC0011124EC01DD5F40E550E0AE
:10279000BE0187E995E00E94C705892B59F4109284
:1027A000970540E550E067E975E0CE010E942F06ED
:1027B00080E001C081E0DF91CF910895CF93C0E028
:1027C0008C2F0E94BE13811104C087E00E94382B19
:1027D0000AC080919705882331F00E94B1130E94AE
:1027E000B9080E948D16C13011F0C1E0E9CFCF9138
:1027F00008958F929F92AF92BF92CF92DF92EF9205
:10280000FF920F931F93CF93DF93CDB7DEB72A9735
:102810000FB6F894DEBF0FBECDBF6B017C01042F55
:1028200020E030E0A9010E94FA3687FF07C08DE260
:102830000E941C2BF7FAF094F7F8F094102F123046
:1028400060F020E030E048EC52E4C701B6010E949D
:102850005C396B017C011250F2CF00FF0AC020E00E
:1028600030E040E251E4C701B6010E945C396B01DF
:102870007C0120E030E040E05FE3C701B6010E9448
:1028800005360E947637E1E0F0E0EC0FFD1FE00F27
:10289000F11D2EE2208310E03AE0832E912CA12C32
:1028A000B12C6115710581059105A9F0101301C0C6
:1028B0001F5FEE24E394F12CEC0EFD1EE10EF11CE3
:1028C000A50194010E94713A605DF7016083B9012E
:1028D000CA011F5FE6CF80E3101748F4E1E0F0E0A3
:1028E000EC0FFD1FE10FF11D80831F5FF5CF10136B
:1028F0000BC012E0100F0F5FE1E0F0E0EC0FFD1FE6
:10290000E00FF11D80E38083112341F0FE01E10F10
:10291000F11D80810E941C2B1150F6CF2A960FB614
:10292000F894DEBF0FBECDBFDF91CF911F910F9105
:10293000FF90EF90DF90CF90BF90AF909F908F90DF
:10294000089543E00C94F913EF92FF920F931F93B5
:10295000CF93DF931F92CDB7DEB7362FEDB6FEB61D
:102960006DB77EB7641B71090FB6F8947EBF0FBEBA
:102970006DBF0DB71EB70F5F1F4F202FF8019E2FA1
:10298000921B941728F4632F0E94653A9193F7CF16
:10299000442361F0F801E40FF11D31978081805DDF
:1029A00049830E941C2B49814150F2CF0FB6F89405
:1029B000FEBE0FBEEDBE0F90DF91CF911F910F9124
:1029C000FF90EF90089548E062E00C94A4149FB744
:1029D000F894809126068260809326069FBF089512
:1029E0002091650620FF08C02BE832E441E25DE358
:1029F0000E945C3941E001C040E00C94F913209141
:102A0000650620FF08C02BE832E441E25DE30E9446
:102A10005C3944E001C043E00C94F9138A3020F0A3
:102A2000843620F043E003C041E001C042E06AE0A8
:102A30000C94A414CF93DF93FC018491EF012196B1
:102A4000882321F00E941C2BFE01F7CFDF91CF914C
:102A50000895FF920F931F93CF93DF9382E197E046
:102A60000E941A15809158060E940E1589EF96E073
:102A70000E941A1580915B060E940E158BED96E060
:102A80000E941A15809159060E940E1582EC96E05C
:102A90000E941A15809159060E94E3148BEB96E070
:102AA0000E941A1580915A060E940E1583EA96E03C
:102AB0000E941A1580915A060E94E3148CE996E050
:102AC0000E941A158091650682FB882780F90E9472
:102AD0000E158BE796E00E941A158091650686FB1D
:102AE000882780F90E940E158BE596E00E941A1542
:102AF00080916506881F8827881F0E940E158BE32A
:102B000096E00E941A1580915C060E940E1585E2DF
:102B100096E00E941A1580915C060E94E3148DE1F4
:102B200096E00E941A1560915D0670915E06809194
:102B30005F06909160060E94A1148DEF95E00E94BF
:102B40001A156091610670916206809163069091FA
:102B500064060E94A11482EE95E00E941A158091ED
:102B6000650681700E940E1585EC95E00E941A158D
:102B70008091650685FB882780F90E940E158AEAF8
:102B800095E00E941A158091650683FB882780F9DD
:102B90000E940E158FE895E00E941A158091650637
:102BA000829581700E940E1583E795E00E941A15A8
:102BB000809166060E940E1589E595E00E941A151F
:102BC000809166060E94E31481E595E00E941A1543
:102BD00060916706709168068091690690916A0617
:102BE0000E94A11484E395E00E941A1560916B067F
:102BF00070916C0680916D0690916E060E94A114F2
:102C000087E195E00E941A1580916F060E940E15CB
:102C100088EF94E00E941A15609171067091720617
:102C200080917306909174060E94A1148FED94E038
:102C30000E941A1584E6F82EC0E008E216E0D0E003
:102C40008DED94E00E941A158D2F8F0D0E940E15A8
:102C50008BED94E00E941A15C23079F0F801C33070
:102C6000C1F0C13029F0608171818281938118C0E7
:102C7000648575858685978513C020E030E041E640
:102C800055E4F801608D718D828D938D0E9404371B
:102C900007C084A195A1A6A1B7A1BC01CD01905800
:102CA0000E94A11488ED94E00E941A15D13029F0F9
:102CB000D23031F086ED94E005C084ED94E002C09E
:102CC00082ED94E00E941A15C23051F0C33059F0E1
:102CD000C13019F088EC94E008C086EB94E005C0A0
:102CE00085EA94E002C085E994E00E941A1581E922
:102CF00094E00E941A15DF5F0C5F1F4FD33009F07C
:102D00009FCFFAE0FF0ECF5F8CE8F81296CFDF91ED
:102D1000CF911F910F91FF900895811104C08AE710
:102D200093E00C941A150C94382B2F923F924F92EB
:102D30005F926F927F928F929F92AF92BF92CF924B
:102D4000DF92EF92FF920F931F93CF93DF93CDB754
:102D5000DEB768970FB6F894DEBF0FBECDBF01E0B7
:102D600099E2A92E28E0722E30E2632E40E1B42EC3
:102D700050E4552E62E0462E7CE0372E1091AF06CF
:102D8000112309F45BC00093B10611FF07C087E36C
:102D900094E00E941A158CE294E023C012FF07C051
:102DA00087E394E00E941A1581E294E01AC013FFB1
:102DB00007C087E394E00E941A158EE094E011C0EA
:102DC00014FF07C087E394E00E941A1583E094E0A3
:102DD00008C015FF10C087E394E00E941A1587EF22
:102DE00093E00E941A1584EF93E00E941A1584EF75
:102DF00091E00E94A70510FD08C08FB7F89490914C
:102E0000AF061092AF068FBF19C082EF93E00E9409
:102E10001A1580EE93E00E941A158FE793E00E9446
:102E20001A159FB7F894809126068F7E8093260608
:102E30009FBF8091260684FFFCCFDFCF109126062E
:102E4000112309F4C0C114FF04C081E08093B006CF
:102E5000CBC110FFF3C0E4EBF6E0DE011D96832D3D
:102E600001900D928A95E1F78091B1068430E9F0E6
:102E700040F48130E9F080F0823009F58CE694E08E
:102E80001CC0803179F018F4883049F018C08032C5
:102E900091F0803421F013C08BE894E00EC086E8F6
:102EA00094E00BC080E894E008C08AE794E005C095
:102EB00083E794E002C086E694E00E941A158091B0
:102EC0005C06837039F0BE01635F7F4FCE010196CF
:102ED0000E948C1C80915C0680FD05C080915C0680
:102EE00081FF6EC01FC08FE594E00E941A156981B2
:102EF0007A818B819C810E94FF148DE594E00E9471
:102F00001A156D817E818F8198850E94FF148DE551
:102F100094E00E941A1569857A858B859C850E94AC
:102F2000FF14DCCF86E594E00E941A158AE0C82ED3
:102F300086E0D82ECE0101967C01212C4701F601B6
:102F400061917191819191916F01208531854285C7
:102F500053850E9405369B01AC01F70160817181A8
:102F6000828193810E940436F7016083718382839A
:102F70009383F2E02F120FC0209122063091230696
:102F800040912406509125060E940436F701608383
:102F9000718382839383F4E0EF0EF11CF40160816E
:102FA0007181828193810E94FF14F2E02F1621F03B
:102FB00084E594E00E941A15239423E02212BECFE8
:102FC00080915C0682FF0EC08EE494E00E941A1588
:102FD0008091830490918204891708F48E5E891B86
:102FE0000E940E1580915C0683FF0EC089E494E078
:102FF0000E941A1590919D0180919E01891708F4F5
:103000008058891B0E940E1580915C0684FF0AC0BF
:1030100083E494E00E941A150E94B20543E062E046
:103020000E94A4148FE394E00E941A159FB7F894AD
:10303000809126068E7F809326069FBF812F8876FB
:1030400009F444C08091B106882349F0982F9C77F9
:10305000A9F1883021F40E940D1D0093B2068091E1
:10306000B106811102C04092B20616FF09C0883035
:1030700011F45092B1068091B20688608093B20636
:1030800013FF05C08091B10685FFB092B10615FF10
:1030900015C082EF93E00E941A158EE993E00E941A
:1030A0001A158FE793E00E941A158091B20681FDF0
:1030B000146084608093B2066092B1069FB7F89462
:1030C000809126068779809326069FBF11FF57C0FF
:1030D000812F887609F04BC08091B106882339F0A2
:1030E000807509F444C08091B20681FF40C0809190
:1030F000B20682FF20C08091F005882371F04091D4
:10310000F1055091F2056091F3057091F4050E946C
:10311000FE2880EA9FE00E94A7058091EF058823A2
:1031200051F0823011F4439A02C00E946E0688EE7C
:1031300093E00E94A70580918204909183049817E0
:1031400091F0A89EC001112480569E4F892B59F002
:103150008091B20683FD07C07092B1060E942F1DB8
:103160000E94D82802C01092B1061092B2069FB7F2
:10317000F894809126068D7F809326069FBF12FFCC
:1031800022C08091B106807391F08091B3068111C5
:103190000EC08091B20682FF04C00E94F8280E94EF
:1031A0006E068091B20682608093B20604C01092CF
:1031B000B2061092B1069FB7F894809126068B7FD5
:1031C000809326069FBF8091B1068C7711F00E94F4
:1031D0002F1D9091B1068091B206903219F481FDB5
:1031E000B092B1068111CACD68960FB6F894DEBFD1
:1031F0000FBECDBFDF91CF911F910F91FF90EF9048
:10320000DF90CF90BF90AF909F908F907F906F9006
:103210005F904F903F902F900895E1E0F1E0A0EB98
:10322000B6E014964D915D916D917C911797408316
:1032300051836283738318964D915D916D917C915A
:103240001B9744835583668377831C968D919D914C
:103250000D90BC91A02D80879187A287B387089598
:103260002F923F924F925F926F927F928F929F9296
:10327000AF92BF92CF92DF92EF92FF920F931F9384
:10328000CF93DF93CDB7DEB7E7970FB6F894DEBFE5
:103290000FBECDBF4B8F5C8F6D8F072F2FAB209153
:1032A00083042EA3422F50E05BA34AA339E2239F5D
:1032B000F0011124E056FE4F158616861786108AF7
:1032C00015A216A217A210A6108249E956E766E9D0
:1032D0007EE741A352A363A374A399A388A348E202
:1032E00056E058A74FA3CE010D9698AB8FA721E0CB
:1032F00031E03EA72DA7AE014F5F5F4F5DA34CA30A
:103300008EA129E2829FC00111249EAB8DAB5F8FFD
:103310004E8F21E031E03AA729A748E256E05AABA8
:1033200049AB612C712C10E02F01CF010D969CABA5
:103330008BAB1F0195E2290E311CE8A1F9A1619127
:10334000719181919191F9A3E8A3E9A9FAA98190DA
:103350009190A190B190FAABE9ABA50194010E94C4
:103360005C390E942939EFA5F8A961937193819383
:103370009193F8ABEFA7E9A5FAA5C190D190E190A0
:10338000F190FAA7E9A76C197D098E099F096B01D5
:103390007C0197FF07C0CC24DD247601C61AD70A2A
:1033A000E80AF90AEDA9FEA9E60DF71DE056FE4F61
:1033B000C182D282E382F482EBA9FCA9208131810F
:1033C00042815381C216D306E406F50610F4690162
:1033D0007A01EBA9FCA9C082D182E282F3820E9429
:1033E000AE37A50194010E9404374B015C01EE8DBC
:1033F000FF8D6193719381939193FF8FEE8F20E006
:1034000030E0A9010E94FA3687FF0DC0112321F098
:10341000113021F090E803C090E201C090E4F20185
:103420008081892B8083A5019401C501B4010E948C
:103430005C39F10120813181428153810E9405363E
:10344000F10160837183828393831F5FF4E06F0EC9
:10345000711C2CE06216710409F06FCF0E94FB39D9
:103460004B015C01F1016083718382839383CD28DA
:10347000CE28CF2809F426C220E030E0A9016B8DC8
:103480007C8D8D8D902F0E94FA3687FD21C0FFA97B
:10349000FF2361F0A50194016B8D7C8D8D8D902FA4
:1034A0000E945C396B8F7C8F8D8F092F20E030E07C
:1034B00040E85FE36B8D7C8D8D8D902F0E94FA36F6
:1034C00087FF0DC01B8E1C8E20E82D8F0FE307C0D9
:1034D00039E93B8F46E74C8F56E95D8F0EE7A50132
:1034E000940160E070E080E89FE30E94043769A7E0
:1034F0007AA78BA79CA7CE010D969A8F898FC12C96
:10350000D12C760129E2EAA1FBA12E9FC0012F9FB9
:10351000900D11249C012F533E4F39A328A3ECA1F9
:10352000FDA180809180A280B38020E030E0A901DD
:10353000C501B4010E94FA36882309F475C029A593
:103540003AA54BA55CA5C501B4010E945C392B01CD
:103550003C01ECA1FDA160837183828393839B0175
:10356000AC0160E070E080E89FE30E9404374B010B
:103570005C01E894B7F8EFA1F8A524853585468568
:103580005785C501B4010E945C391B018E8F192F2C
:103590009B01482F592F6B8D7C8D8D8D902F0E9414
:1035A000FA3687FD05C02B8E3C8EFE8DFD8F012FD8
:1035B000E8A1F9A120803180F281FE8FE8A1F9A174
:1035C0001381EFA1F8A5208D318D428D538DC5015A
:1035D000B4010E945C394B015C019B01AC01B1015B
:1035E0008E8D912F0E94FA3687FD03C01401AE8E96
:1035F0001B2DC101AE8DB12FE8A1F9A1808391836C
:10360000A283B383EDA5FEA5248535854685578520
:10361000C301B2010E945C399B01AC01C701B60134
:103620000E9404366B017C012CA13DA12C5F3F4F11
:103630003DA32CA34DA55EA54C5F5F4F5EA74DA794
:103640008FA198A5049698A78FA3E98DFA8D2E17C0
:103650003F0709F064CF80918204FEA1F8130FC0E8
:1036600089E22AA13BA1829FF001839FF00D1124E2
:10367000E056FE4F118A128A138A148A14C02FEE64
:103680003FEF4FE75FE3C701B6010E941C391816F0
:103690007CF489E24AA15BA1849FF001859FF00D33
:1036A0001124E056FE4F118E128E138E148E6AC0B6
:1036B0002FEE3FEF4FE75FEBC701B6010E941C39C9
:1036C000181644F08FEEC82EDD24DA948FE7E82E2A
:1036D0008FEBF82EA701960160E070E080E89FE391
:1036E0000E94043620E030E040E05FE30E945C3955
:1036F0000E94FB396B017C0189E22AA13BA1829FD8
:10370000F001839FF00D1124E056FE4F20915D06DD
:1037100030915E0640915F065091600661A172A1F2
:1037200083A194A10E945C39A70196010E945C3993
:103730004B015C01A701960160E070E080E89FE327
:103740000E9404369B01AC01C501B4010E940437FC
:103750006B017C0120E030E0A9010E94FA3687FF6E
:1037600003C0C12CD12C760189E24AA15BA1849FC0
:10377000F001859FF00D1124E056FE4FC18ED28ED0
:10378000E38EF48E2B8D3C8D4D8D502F6B8D7C8D6B
:103790008D8D902F0E945C397B018C0189E22AA1DA
:1037A0003BA1829FF001839FF00D1124E056FE4F54
:1037B000C701D801858F968FA78FB0A3A18CB28C3B
:1037C000C38CD48C6090190170901A0180901B01F9
:1037D00090901C019301A401B701C8010E94FA3620
:1037E00087FD05C0762D672D982D892D04C07E2D6F
:1037F0006F2D902F812F272F362F492F582FB5014E
:10380000C6010E94FA3687FD0DC09301A401B701DD
:10381000C8010E94FA3687FD03C05301640102C04B
:103820005701680189E24AA15BA1849FF001859F4D
:10383000F00D1124E056FE4FC501D601858B968B05
:10384000A78BB08F8CE0FE013196ADE0B1E0019026
:103850000D928A95E1F7C701D801809319019093E1
:103860001A01A0931B01B0931C018CE0FE013D9650
:10387000A1E0B1E001900D928A95E1F780910001FD
:10388000809383048F5F823109F480E0809300018C
:10389000E7960FB6F894DEBF0FBECDBFDF91CF9194
:1038A0001F910F91FF90EF90DF90CF90BF90AF905E
:1038B0009F908F907F906F905F904F903F902F9050
:1038C0000C945C04E7960FB6F894DEBF0FBECDBF34
:1038D000DF91CF911F910F91FF90EF90DF90CF90EC
:1038E000BF90AF909F908F907F906F905F904F9020
:1038F0003F902F9008958CE1E1E0F1E0DF011D920F
:103900008A95E9F7109282041092830481E08093F3
:10391000000110929F010895AF92BF92CF92DF9263
:10392000EF92FF920F931F93CF93DF9300D000D0BD
:10393000CDB7DEB75B0128E2E22E26E0F22E8C0145
:103940006B018CE0C80ED11CF501619171918191E0
:1039500091915F01F70121913191419151917F0145
:1039600029833A834B835C830E94AE3729813A8155
:103970004B815C810E940437F801619371938193BC
:1039800091938F01AC14BD04F9F60F900F900F9036
:103990000F90DF91CF911F910F91FF90EF90DF90EB
:1039A000CF90BF90AF9008951F920F920FB60F92D5
:1039B00011242F933F934F935F936F937F938F9334
:1039C0009F93AF93BF93EF93FF9386B180958770DA
:1039D00099F080FF03C00E9470060EC0982F94706B
:1039E00021F080912606826005C081FF05C080918C
:1039F0002606886080932606FF91EF91BF91AF91D4
:103A00009F918F917F916F915F914F913F912F91F6
:103A10000F900FBE0F901F901895CF93DF93C0911A
:103A20006A05D0916B052097B9F081E080936D0510
:103A3000609183057091840580918505909186053C
:103A40009B01AC010E945C39698B7A8B8B8B9C8BC0
:103A500010926B0510926A05DF91CF9108952F9215
:103A60003F924F925F926F927F928F929F92AF920E
:103A7000BF92CF92DF92EF92FF920F931F93CF935B
:103A8000DF93CDB7DEB7CE54D1090FB6F894DEBFC1
:103A90000FBECDBF8091B106807725968FAF259759
:103AA000882389F020E030E0A901609183057091BE
:103AB000840580918505909186050E94FA368823B9
:103AC00011F40C940126209183052B8B30918405F1
:103AD0003C8B409185054D8B509186055E8B809186
:103AE00093058B83909194059D83A0919505AE835A
:103AF000B0919605BC8300917F051091800550918F
:103B00008105409182058091720590917305A09185
:103B10007405B09175058FA398A7A9A7BAA790912E
:103B20006E059FAFA0916F052196AFAF2197B09121
:103B300070052296BFAF2297E09171052396EFAFF3
:103B4000239780917A0590917B05A0917C05B09197
:103B50007D058FAB98AFA9AFBAAF909112052496AF
:103B60009FAF2497A091ED04ADA7B0918304279651
:103B7000BFAF2797E0918204E8A3F0919F012696BA
:103B8000FFAF269720916A0530916B053A8B298B00
:103B900080911305909114059AA389A380917605CD
:103BA00090917705A0917805B09179058BAF9CAF86
:103BB000ADAFBEAF90918B059F8BA0918C05A88F68
:103BC000B0918D05B98FE0918E05EA8F30908F0509
:103BD00020909005F0919105F983209192052A8318
:103BE000309187053B8F809188058C8F9091890556
:103BF0009D8FA0918A05AE8F8091EC049DA58917B9
:103C000009F466C7E989FA89EF2B09F089C227967A
:103C1000FFAD279728A1F21781F0A22EB12C39E22F
:103C20003A9DC0013B9D900D1124DC01A056BE4F72
:103C3000BA8BA98BAB2B09F051C0C801A52FB42FAB
:103C400080937F0590938005A0938105B0938205B2
:103C50008F89988DA98DBA8D80938B0590938C0553
:103C6000A0938D05B0938E058B899C89AD89BE8903
:103C70008093830590938405A0938505B093860572
:103C80008B8D9C8DAD8DBE8D80938705909388051F
:103C9000A0938905B0938A058B819D81AE81BC81FB
:103CA0008093930590939405A0939505B093960502
:103CB000832D922DA981BA8180938F0590939005D1
:103CC000A0939105B09392052496BFAD2497B0932D
:103CD000120510926B0510926A054CC780916D0514
:103CE000882319F010926D05BFC080916C058F5F1D
:103CF000853019F080936C0502C010926C0580919C
:103D00006C0551E1589FC0011124DC01AB5EBA4F34
:103D1000BAA3A9A3B9E2BA9D9001BB9D300D1124AD
:103D2000F901E056FE4F7F018081A9A1BAA18C93D1
:103D300081819281A381B48123E0880F991FAA1FFA
:103D4000BB1F2A95D1F7E9A1FAA181839283A383AE
:103D5000B483F70185819681A781B08533E0880F10
:103D6000991FAA1FBB1F3A95D1F7E9A1FAA1858334
:103D70009683A783B087F70181859285A385B48553
:103D800043E0880F991FAA1FBB1F4A95D1F7E9A1ED
:103D9000FAA181879287A387B487D7011D966D9179
:103DA0007D918D919C9150978B019C0153E0000F68
:103DB000111F221F331F5A95D1F7058716872787B2
:103DC000308B0E94AC376FAF21967FAF2197229640
:103DD0008FAF229723969FAF2397D70195962D916A
:103DE0003D914D915C9198970E9404376FA378A7FD
:103DF00089A79AA79B01AC0160E070E080EA9FE38D
:103E00000E9404376BAF7CAF8DAF9EAF2596BFADE0
:103E10002597BB23C1F02F89388D498D5A8D6F8925
:103E2000788D898D9A8D0E945C39F701618B728B38
:103E3000838B948BFF89FB8B288D2C8B398D3D8B4D
:103E40004A8D4E8B0DC0D70151966D917D918D910C
:103E50009C9154970E94FB396B8B7C8B8D8B9E8B36
:103E60001FAA18AE19AE1AAEB9E2BA9D9001BB9D59
:103E7000300D1124F901E056FE4F4F01C1A0D2A030
:103E8000E3A0F4A0A701960160E070E080E09FE36A
:103E90000E94043769877A878B879C872596FFADB8
:103EA0002597FF23E9F122E020937E05D401959622
:103EB0004D905D906D907C90989751968D909D90CF
:103EC000AD90BC905497A50194010E945C399B0170
:103ED000AC01C301B2010E9404368B0189879D8722
:103EE00020E030E0A9010E94FA3687FF1EC1A70139
:103EF0009601C701B6010E940536A30192010E94F6
:103F00005C399B01AC01C501B4010E9404360E94DA
:103F1000FB396F8B788F898F9A8F3F82288618C1E3
:103F200010927E05F401F5A1FF83D4019696BC9111
:103F3000B887F40107A110A5E8A1EF5FE23109F409
:103F4000E0E02796FFAD2797EF1789F029E22E9F33
:103F5000F0011124E056FE4F6189728983899489AA
:103F60000E94FB396F8B788F898F9A8F04C01F8ACC
:103F7000188E198E1A8E2F89388D498D5A8D6F891A
:103F8000788D898D9A8D0E945C392B013C0149E224
:103F90004A9D90014B9D300D1124C90180569E4FC2
:103FA0005C01DC0151962D913D914D915C915497AE
:103FB0002D873E874F87588BA30192016D857E85A3
:103FC0008F8598890E9404369B01AC0169857A85AA
:103FD0008B859C850E945C399B01AC016F81788543
:103FE000C8010E94053620E030E040E05FE30E9417
:103FF0005C39362E272E89839A8320E030E0A90190
:104000000E941C3918160CF097C02F813885A80122
:10401000632D722D89819A810E94FA3687FF72C0C2
:10402000F501858C968CA78CB0A0A3019201C501E7
:10403000B4010E9404369B01AC0169857A858B85A9
:104040009C850E945C396B837D838E839C83232DAA
:10405000322D49815A810E94FA3687FF34C0C5014A
:10406000B4010E94FB396B8F7C8F8D8F9E8FA501D1
:1040700094016D857E858F8598890E94FA3681111D
:1040800006C0F1E0F0937E0509831A8361C02D8597
:104090003E854F855889C501B4010E9404369B01B5
:1040A000AC0169857A858B859C850E945C399B0172
:1040B000AC016F817885C8010E9404366F837887D0
:1040C00089839A8345C0A7019601C701B6010E9462
:1040D0000536232D322D49815A810E945C39A30176
:1040E00092010E9405360E94FB396B8F7C8F8D8F69
:1040F0009E8F3F8228863B822D8229812E833A81A2
:104100003C8326C042E040937E0509831A835B8985
:104110005B8F8C898C8F9D899D8FAE89AE8F18C0E7
:104120003F82288659874D8717C03F8228861F8A7D
:10413000188E198E1A8E10C0BF89BB8FE88DEC8F38
:10414000F98DFD8F2A8D2E8F1F82188619821A8273
:1041500000E010E019861D8624965FAD2497452F58
:1041600050E05CA74BA786E0849FF001859FF00D8F
:104170001124E251FB4F80916C058283A989BA8991
:104180009596BC91BAABE989FA89F6A1FBABA989EE
:10419000BA899796BC912896BFAF2897E989FA8982
:1041A000F0A52996FFAF29972BAD3CAD4DAD5EAD87
:1041B0006AA97BA98B2F9F2F0E9404366EA77FA729
:1041C00088AB99AB20E030E0A9010E94FA3687FF66
:1041D00004C01EA61FA618AA19AA20917E052F8F1B
:1041E0002AA83BA92F963FAF2F9728964FAD289727
:1041F0002E964FAF2E9729963FAC29978EE3C82E67
:1042000083ECD82E8EE2E82E89E3F82E412C512C37
:104210003201CBA2DCA2EDA2FEA29F8D992321F058
:10422000913009F496C0D6C0A989BA8991962D918A
:104230003D914D915C919497C701B6010E945C3904
:104240004B015C0120E030E040E05FE30E945C391C
:104250009B01AC016B897C898D899E890E94053602
:104260009B01AC01C701B6010E945C399B01AC0106
:10427000622D2F967FAD2F972E968FAD2E97932D73
:104280000E940436262E2F967FAF2F972E968FAF43
:104290002E97392E2F81388549815A810E94FA360E
:1042A00087FF4AC02F81388549815A816AA97BA935
:1042B00028968FAD289729969FAD29970E9404369E
:1042C0009B01AC010E9405366B017C012B8D3C8D5E
:1042D0004D8D5E8D6B897C898D899E890E94053606
:1042E0009B01AC01C701B6010E9404376B017C0140
:1042F0002B813D814E815C816F81788589819A8196
:104300000E94FA36811103C0B2E0BF8F02C0E1E023
:10431000EF8FFB8DFB8B2C8D2C8B3D8D3D8B4E8D34
:104320004E8B2F8058852F965FAF2F9789812E96C1
:104330008FAF2E973A80F0C0A50194016B897C89DC
:104340008D899E890E9405366B8B7C8B8D8B9E8B15
:10435000E3C0A70196016B8D7C8D8D8D9E8D0E9493
:104360005C399B01AC01622D2F967FAD2F972E9665
:104370008FAD2E97932D0E9404364B015C012B814B
:104380003D814E815C810E94FA3687FFBDC02B8142
:104390003D814E815C81622D2F967FAD2F972E96A9
:1043A0008FAD2E97932D0E9404362B8D3C8D4D8D15
:1043B0005E8D0E9404376B017C012B809D812F96BE
:1043C0009FAF2F97AE812E96AFAF2E973C80B2E075
:1043D000BF8FA2C0E989FA8921A132A143A154A1CA
:1043E000C701B6010E945C394B015C019B01AC0125
:1043F0006B897C898D899E890E941C3918160CF066
:1044000054C020E030E040E05FE3C501B4010E9409
:104410005C399B01AC016B897C898D899E890E94E6
:1044200004369B01AC01C701B6010E945C399B01B7
:10443000AC01622D2F967FAD2F972E968FAD2E97C4
:10444000932D0E9404362A966FAF2A972B967FAF42
:104450002B972C968FAF2C972D969FAF2D97980169
:1044600049855D850E941C391816FCF4A50194014C
:104470006B897C898D899E890E9404366B8B7C8B2D
:104480008D8B9E8B2A962FAC2A972B96FFAD2B9760
:104490002F96FFAF2F972C962FAD2C972E962FAFE0
:1044A0002E972D963FAC2D9737C0980149855D8595
:1044B000622D2F967FAD2F972E968FAD2E97932D31
:1044C0000E9404369B01AC010E9405366B017C0101
:1044D0002F89388D498D5A8D6B897C898D899E896C
:1044E0000E9405369B01AC01C701B6010E9404374A
:1044F0006B017C01202E2F961FAF2F9739852E96AA
:104500003FAF2E973D8408C0282C2F969FAE2F9743
:104510002E96AFAE2E973B2CA7019601C301B20198
:104520000E9405362B013C012BA13CA14DA15EA1AF
:104530000E94FA3687FF07C0A30192016BA17CA1FC
:104540008DA19EA163C02EA53FA548A959A9622DA2
:104550002F967FAD2F972E968FAD2E97932D0E947D
:104560001C3918160CF442C04F8D40937E05222D45
:104570002F963FAD2F972E964FAD2E97532D6FA1AF
:1045800078A589A59AA50E945C396F8F7BA38EA719
:104590009AAB0E94E3366B017C016FAD21967FAD33
:1045A000219722968FAD229723969FAD23970E9445
:1045B000E3364B015C01A70196010E9404360E947C
:1045C0007D376BAB7CAB8DAB9EABA6E08BA59CA582
:1045D000A89FF001A99FF00D1124E251FB4F2BA9D8
:1045E0003CA931832083232B49F1B5C02EE333EC62
:1045F0004EE259E36BA17CA18DA19EA10E940536DC
:104600006BA37CA38DA39EA3A30192010E940436F9
:104610006B017C01980149855D85622D2F967FADE8
:104620002F972E968FAD2E97932D0E941C3918161A
:104630000CF4F3CD5F8D50937E0599CF25968FAD09
:104640002597882309F487C0C801A985BD85809373
:104650007F0590938005A0938105B09382058F8993
:10466000988DA98DBA8D80938B0590938C05A0931E
:104670008D05B0938E058B8D9C8DAD8DBE8D8093F9
:10468000870590938805A0938905B0938A058B814F
:104690009D81AE81BC818093930590939405A093F6
:1046A0009505B09396058F819885A981BA818093ED
:1046B0008F0590939005A0939105B0939205249651
:1046C0009FAD249790931205A989BA89B0936B0581
:1046D000A0936A052BAD3CAD4DAD5EAD2093760544
:1046E00030937705409378055093790538A130933E
:1046F000820449A15AA150931405409313058FA138
:1047000098A5A9A5BAA58093720590937305A09367
:104710007405B09375059DA59093ED0410928305E3
:1047200010928405109285051092860510927A05E4
:1047300010927B0510927C0510927D05C0926E054B
:10474000D0926F05E0927005F09271052FA138A507
:1047500049A55AA56FC12FA938AD49AD5AADC301BE
:10476000B2010E9405362B013C012F8D3BA14EA5C5
:104770005AA9C501B4010E9404369B01AC01C301D2
:10478000B2010E9404374B015C012F8D3BA14EA565
:104790005AA9C701B6010E940436A50194010E94DE
:1047A0005C396FAB78AF89AF9AAF20EC31EE44E65D
:1047B0005EE4C501B4010E945C390E94E3360E94A8
:1047C0007D37603DB7E07B078105910560F446E0E9
:1047D0002BA53CA5429FF001439FF00D1124E2510F
:1047E000FB4F158253C0603A5FE075078105910564
:1047F00060F426E0ABA5BCA52A9FF0012B9FF00D2D
:104800001124E251FB4F31E011C060344FE17407D5
:104810008105910568F426E0ABA5BCA52A9FF001AF
:104820002B9FF00D1124E251FB4F32E035830CC079
:10483000A6E04BA55CA5A49FF001A59FF00D112457
:10484000E251FB4FB3E0B58346E02BA53CA5429F68
:10485000F001439FF00D1124E251FB4F2581022E00
:1048600004C096958795779567950A94D2F7ABA97A
:10487000BCA902C0AA0FBB1F2A95E2F7B183A0838F
:1048800061157105B1E08B07910568F446E02BA531
:104890003CA5429FF001439FF00D1124E251FB4FD4
:1048A0007483638304C08FEF9FEF94838383BDA4DD
:1048B000B39496E0B91201C0B12C980149855D8589
:1048C000622D2F967FAD2F972E968FAD2E97932D1D
:1048D0000E941C391816ECF4822D2F969FAD2F974D
:1048E0002E96AFAD2E97B32DE989FA8985A396A3AD
:1048F000A7A3B0A7FF8DFFAF2BA121962FAF2197C4
:104900003EA522963FAF22974AA923964FAF239701
:10491000D5C020E030E0A901622D2F967FAD2F9702
:104920002E968FAD2E97932D0E941C3918160CF0E1
:10493000AEC0C801A985BD8580937F059093800591
:10494000A0938105B09382058F89988DA98DBA8D2A
:1049500080938B0590938C05A0938D05B0938E0565
:104960008B8D9C8DAD8DBE8D809387059093880532
:10497000A0938905B0938A058B819D81AE81BC810E
:104980008093930590939405A0939505B093960515
:104990008F819885A981BA8180938F059093900526
:1049A000A0939105B09392055DA550931205898956
:1049B0009A8990936B0580936A052BAD3CAD4DAD04
:1049C0005EAD20937605309377054093780550933C
:1049D000790538A13093820449A15AA15093140556
:1049E000409313058FA198A5A9A5BAA58093720538
:1049F00090937305A0937405B0937505B092ED0480
:104A000010928305109284051092850510928605F8
:104A100010927A0510927B0510927C0510927D050C
:104A2000C0926E05D0926F05E0927005F09271050C
:104A30009C01AD01C701B6010E940437A989BA895A
:104A400095966D937D938D939C9398970E940D1DE1
:104A50008091820480939F01C25BDF4F0FB6F89470
:104A6000DEBF0FBECDBFDF91CF911F910F91FF90A1
:104A7000EF90DF90CF90BF90AF909F908F907F90FE
:104A80006F905F904F903F902F900C945C0427960E
:104A9000BFAD2797E8A1BE1779F08E2F8F5F8231C7
:104AA00009F480E0F8A126962FAD2697F21303C0F3
:104AB00026968FAF269788A31A8A198A59854D851D
:104AC0003F8028843DA524963FAF2497BDA694C877
:104AD000C801A52FB42F80937F0590938005A093E4
:104AE0008105B09382058F89988DA98DBA8D8093A9
:104AF0008B0590938C05A0938D05B0938E058B89C3
:104B00009C89AD89BE898093830590938405A09389
:104B10008505B09386058B8D9C8DAD8DBE8D809364
:104B2000870590938805A0938905B0938A058B81AA
:104B30009D81AE81BC818093930590939405A09351
:104B40009505B0939605832D922DA981BA81809306
:104B50008F0590939005A0939105B09392052496AC
:104B6000AFAD2497A0931205E989FA89F0936B05FC
:104B7000E0936A052BAD3CAD4DAD5EAD209376055F
:104B800030937705409378055093790538A1309399
:104B9000820449A15AA150931405409313058FAD87
:104BA00021969FAD21972296AFAD22972396BFAD58
:104BB000239780936E0590936F05A0937005B09333
:104BC00071058FA198A5A9A5BAA5809372059093A8
:104BD0007305A0937405B09375052FA938AD49AD41
:104BE0005AAD20937A0530937B0540937C05509312
:104BF0007D053DA53093ED0426964FAD2697409355
:104C00009F01C25BDF4F0FB6F894DEBF0FBECDBF72
:104C1000DF91CF911F910F91FF90EF90DF90CF9098
:104C2000BF90AF909F908F907F906F905F904F90CC
:104C30003F902F90089580915906682F90E0209121
:104C40005A06422F80FD94E0822F817020FD80E281
:104C500061FD986041FD806462FD906142FD806865
:104C60009093C7048093C60408951F920F920FB6C5
:104C70000F9211248F939F938BB19091C7049C71D5
:104C8000837E892B8BB915BC9F918F910F900FBE9E
:104C90000F901F90189580916F008D7F80936F000B
:104CA00080918100887F8160809381001092C80488
:104CB00080915B068F3F21F49091AF06992349F0D4
:104CC0009091B106943029F090E00E94A70581E010
:104CD00001C080E09091650692FF02C091E08927B3
:104CE000882311F0289A0895289808950E944B2649
:104CF0008BE2ECE6F5E0DF011D928A95E9F783E2AD
:104D0000E9ECF4E0DF011D928A95E9F710926B055A
:104D100010926A051092EC041092120581E08093C3
:104D2000ED041092C8040E941B268BB1837E9091E3
:104D3000C704892B8BB98BB18F719091C604892BD5
:104D40008BB908951F920F920FB60F9211242F93D3
:104D50003F934F935F936F937F938F939F93AF9303
:104D6000BF93EF93FF938091C804811110C28BB160
:104D70009091D804907E8F71892B8BB98BB1837EF3
:104D80009091D704892B8BB98091D60486BD82E09F
:104D900085BD81E08093C80478948091EA04909165
:104DA000EB04892B09F0ADC08091EC0490911205C1
:104DB000981709F49BC0E091EC042E2F30E086E0B8
:104DC000E89FF0011124E251FB4FF093EB04E093D4
:104DD000EA04838194819093890080938800808184
:104DE00091819093E6048093E504E2818091E70449
:104DF0008E1761F1E093E70481E1E89FF00111244F
:104E0000EB5EFA4FF093E904E093E804858596851C
:104E1000A785B089B695A795979587958093D10476
:104E20009093D204A093D304B093D4048093CD0480
:104E30009093CE04A093CF04B093D0048093C90480
:104E40009093CA04A093CB04B093CC04E091E804FF
:104E5000F091E9049091C604808189278093D80459
:104E600086E0829FD001839FB00D1124A251BB4FD9
:104E700015962C9181819281A381B481022E04C068
:104E8000B695A795979587950A94D2F78093D904FC
:104E90009093DA04A093DB04B093DC0485819681BF
:104EA000A781B085022E04C0B695A79597958795E2
:104EB0000A94D2F78093DD049093DE04A093DF047C
:104EC000B093E00481859285A385B48504C0B6952E
:104ED000A795979587952A95D2F78093E1049093AB
:104EE000E204A093E304B093E4040BC00E944B26B9
:104EF0009FB7F894809126068460809326069FBF12
:104F000046C1809127068130B1F486B180729091BC
:104F10007506891781F0109227068CE0E4EBF6E025
:104F2000A0ECB6E001900D928A95E1F780912606FB
:104F30008064809326061092D7044091D904509142
:104F4000DA046091DB047091DC048091C9049091D3
:104F5000CA04A091CB04B091CC04840F951FA61F66
:104F6000B71F8093C9049093CA04A093CB04B09355
:104F7000CC04E091E804F091E90445855685678505
:104F80007089481759076A077B0768F524E0209362
:104F9000D7044585568567857089841B950BA60BBC
:104FA000B70B8093C9049093CA04A093CB04B09329
:104FB000CC0420818091B4069091B506A091B606EC
:104FC000B091B70625FF04C00197A109B10903C03C
:104FD0000196A11DB11D8093B4069093B506A093D0
:104FE000B606B093B7064091DD045091DE0460919F
:104FF000DF047091E0048091CD049091CE04A091E3
:10500000CF04B091D004840F951FA61FB71F8093C3
:10501000CD049093CE04A093CF04B093D0044585E3
:10502000568567857089481759076A077B0778F5A1
:105030002091D70428602093D7044585568567853D
:105040007089841B950BA60BB70B8093CD049093AE
:10505000CE04A093CF04B093D00420818091B806F1
:105060009091B906A091BA06B091BB0626FF04C084
:105070000197A109B10903C00196A11DB11D80933B
:10508000B8069093B906A093BA06B093BB064091B8
:10509000E1045091E2046091E3047091E404809192
:1050A000D1049091D204A091D304B091D404840F80
:1050B000951FA61FB71F8093D1049093D204A0938D
:1050C000D304B093D4044585568567857089481705
:1050D00059076A077B0778F52091D7042061209350
:1050E000D7044585568567857089841B950BA60B6B
:1050F000B70B8093D1049093D204A093D304B093C0
:10510000D40420818091BC069091BD06A091BE067A
:10511000B091BF0627FF04C00197A109B10903C0E0
:105120000196A11DB11D8093BC069093BD06A0936E
:10513000BE06B093BF068091B106843039F49091D9
:10514000CD068091D70489238093D7048091E5040C
:105150009091E60401979093E6048093E504892BEF
:1051600069F41092EB041092EA048091EC048F5FD2
:105170008093EC04863011F41092EC049091C704F3
:105180008091D70489278093D7041092C804FF9197
:10519000EF91BF91AF919F918F917F916F915F91AF
:1051A0004F913F912F910F900FBE0F901F90189528
:1051B0008091650682FF02C0289A01C028988091DC
:1051C000B1068C70A1F08091C6048093D8048091C0
:1051D000C7048093D70480915806880F8450819526
:1051E0008093D60480916F00826080936F00089551
:1051F000E0EBF0E080818F7780830895CF92DF929B
:10520000EF92FF926A017B01811106C0FF90EF903F
:10521000DF90CF900C94F828813011F42D9801C0C4
:105220002D9A83E88093B0008091B100887F8260DE
:105230008093B10020E030E0A901C701B6010E94CF
:10524000FA3618161CF720E030E0A901C701B601B4
:105250000E94FA3687FD11C020E030E04AE754E4AE
:10526000C701B6010E941C39181654F4C12CD12C68
:105270008AE7E82E84E4F82E03C0C12CD12C7601F5
:105280002CE53FE842E85EE3C701B6010E945C39C5
:1052900020E030E040E05FE30E9405360E94E937FD
:1052A0000E947D376093B300FF90EF90DF90CF9026
:1052B000089569E080E090E00E940D064DE450E022
:1052C00068E276E081E090E00C942F062DE0829F6A
:1052D000C00111244CE050E09E5F0C942F061F93F8
:1052E000CF93DF93182FEB018DE0189FB0011124AD
:1052F0007E5F4CE050E0CE010E94C705892B59F437
:105300008CE0FE0111928A95E9F7BE01812F0E947F
:10531000662980E001C081E0DF91CF911F9108955F
:10532000EF92FF920F931F93CF93DF93CDB7DEB72A
:105330002C970FB6F894DEBF0FBECDBF182F80FF9D
:10534000C1C08AE08093580689E180935B06109281
:10535000590610925A0683E080935C068AE097ED26
:10536000A3E2BCE380935D0690935E06A0935F0684
:10537000B09360068FE692E1A3E0BBE38093610601
:1053800090936206A0936306B0936406109266063B
:1053900080E090E0A8ECB1E4809367069093680603
:1053A000A0936906B0936A0680E090E0AAEFB3E4A8
:1053B00080936B0690936C06A0936D06B0936E0677
:1053C0002AEF30E03093700620936F0640E050E003
:1053D00060E87FE340937106509372066093730612
:1053E000709374061092650640E050E06AE773E43B
:1053F000409328065093290660932A0670932B0643
:1054000040932C0650932D0660932E0670932F0622
:105410004093300650933106609332067093330602
:105420008093340690933506A0933606B0933706E2
:105430008093380690933906A0933A06B0933B06C2
:1054400080933C0690933D06A0933E06B0933F06A2
:1054500080E090EAACE0B7E4809340069093410688
:10546000A0934206B093430680934406909345066A
:10547000A0934606B093470680934806909349064A
:10548000A0934A06B0934B0680E090E0A8E4B3EC0A
:1054900080934C0690934D06A0934E06B0934F0612
:1054A0008093500690935106A0935206B0935306F2
:1054B0008093540690935506A0935606B0935706D2
:1054C0000E94592911FF10C0CE0101967C018CE089
:1054D000F70111928A95E9F700E0B701802F0E9449
:1054E00066290F5F0830C9F712FF0AC060E080E04C
:1054F00093E00E940D0660E081E593E00E940D06B6
:1055000013FF05C060E08EEA93E00E940D062C9622
:105510000FB6F894DEBF0FBECDBFDF91CF911F91C4
:105520000F91FF90EF9008951F920F920FB60F9278
:1055300011242F933F934F935F936F937F938F9398
:105540009F93AF93BF93EF93FF938091C6008F33E8
:10555000A9F050F4883109F1813211F59FB7F89420
:1055600080912606886015C0803471F08E37C1F4B2
:105570009FB7F8948091260682600BC09FB7F8947D
:1055800080912606816005C09FB7F8948091260619
:105590008062809326069FBF14C00E94700611C0CF
:1055A000E0919E0191E09E0F903809F490E02091E7
:1055B0009D01921731F0F0E0E35EFE4F80839093FF
:1055C0009E01FF91EF91BF91AF919F918F917F913C
:1055D0006F915F914F913F912F910F900FBE0F9060
:1055E0001F9018951F920F920FB60F9211248F9350
:1055F0009F93EF93FF938091C504E82FF0E0EB5762
:10560000FB4F90819093C6008F5F803409F480E057
:105610008093C50490918404891305C08091C100D2
:105620008F7D8093C100FF91EF919F918F910F909B
:105630000FBE0F901F901895E091840491E09E0F8B
:10564000903431F490E004C02091260624FD0FC070
:105650002091C5049217C1F3F0E0EB57FB4F808314
:10566000909384048091C10080628093C10008956A
:10567000CF93C82F83E398E00E941A154C2F50E077
:10568000FA013197E631F10580F5EB58FF4F0C94A4
:10569000933A8BE198E002C089E098E00E941A15E5
:1056A0002BC087EF97E0FACF8DEE97E0F7CF8CED28
:1056B00097E0F4CF8DEC97E0F1CF8CEA97E0EECF56
:1056C00083EA97E0EBCF88E997E0E8CF85E897E0B9
:1056D000E5CF87E797E0E2CF81E697E0DFCF8DE483
:1056E00097E0DCCF89E397E0D9CF87E297E00E948B
:1056F0001A158C2F0E940E1584E297E0CF910C941E
:105700001A150F931F93CF93DF938EE197E00E94BA
:105710001A15C0EBD6E0688979898A899B890E942D
:10572000AE3708E216E0F8012081318142815381D1
:105730000E9404370E94FF148CE197E00E941A1522
:105740006C897D898E899F890E94AE37F8012481FA
:105750003581468157810E9404370E94FF148CE1F5
:1057600097E00E941A15688D798D8A8D9B8D0E9415
:10577000AE37F80120853185428553850E94043774
:105780000E94FF148AE197E00E941A158C8D0E94F6
:105790000E1586E197E0DF91CF911F910F910C9448
:1057A0001A158F929F92AF92BF92CF92DF92EF9293
:1057B000FF920F931F93CF93DF937C016B01DC016A
:1057C000EC91F0E0E956FA4F9081EF019D3221F41F
:1057D0002296918101E007C09B3211F0219602C010
:1057E0002296918100E0912CF0E010E020E030E082
:1057F000A9015E01E0EDE90FEA30D0F4FF5FF93076
:1058000098F491101150A5E0B0E00E94993ADC01A3
:10581000CB01880F991FAA1FBB1F9C01AD012E0F42
:10582000311D411D511D0AC0911008C01F5F06C0E7
:10583000EE3F41F4911006C0992493942196D5012E
:105840009C91D7CFFF2309F44FC0CA01B9010E9430
:10585000AC374B015C0120E030E0A9010E94FA3630
:10586000882349F11F3F64F42AE037ED43E25CE30B
:10587000C501B4010E945C394B015C011E5FF2CF8F
:105880001F3F59F42DEC3CEC4CEC5DE3C501B40139
:105890000E945C394B015C010EC0112361F020E0D5
:1058A00030E040E251E4C501B4010E945C394B0193
:1058B0005C011150F2CF002351F0B7FAB094B7F861
:1058C000B094F60180829182A282B38206C0D60192
:1058D0008D929D92AD92BC921397C759D540C150FD
:1058E000F701C08381E001C080E0DF91CF911F917B
:1058F0000F91FF90EF90DF90CF90BF90AF909F906F
:105900008F9008954F925F926F927F928F929F92A5
:10591000AF92BF92CF92DF92EF92FF920F931F93BD
:10592000CF93DF937C014A015B01D22E8091650603
:1059300085FF4FC08701C0E0D0E0CC24C394F801BC
:1059400041905190619071908F0120E030E0A90169
:10595000C301B2010E941C39181664F0FE01E85D13
:10596000F94F24A135A146A157A1C301B2010E945C
:10597000FA3687FDC092B3068091B306882321F1E1
:105980008091B106883069F00E9470068FB7F89454
:105990003091AF0635603093AF068FBF0E949516E9
:1059A00018C08FB7F89430912606386030932606D9
:1059B0008FBF0E9495168091B00681110AC0809118
:1059C000B1068111F6CFE0CF2496CC30D10509F095
:1059D000B6CF8091B106823029F10E949516809150
:1059E000B00681111FC0909182048091000198132C
:1059F00003C00E94E714F1CF2D2DB501A401C7010A
:105A0000DF91CF911F910F91FF90EF90DF90CF909A
:105A1000BF90AF909F908F907F906F905F904F90CE
:105A20000C943019DF91CF911F910F91FF90EF905F
:105A3000DF90CF90BF90AF909F908F907F906F90AE
:105A40005F904F900895CF93DF93CDB7DEB7619706
:105A50000FB6F894DEBF0FBECDBF8091C00082604C
:105A60008093C0001092C50080E18093C4008091B3
:105A7000C10080618093C1008091C10088608093E3
:105A8000C1008091C10080688093C10080E090E0F7
:105A90000E945404893009F008C54DE450E061E0EB
:105AA00070E088E296E00E94C705892B09F4FDC4E6
:105AB0008AB18C618AB9209A8AB1806E8AB9809144
:105AC00081008F7E80938100809181008860809327
:105AD0008100809180008C7F809380008091800085
